:0200000280007C
:10000000F8250720B9070800B5070800B50708005C
:10001000B5070800B5070800B50708000000000094
:10002000000000000000000000000000B50708000C
:10003000B507080000000000B5070800B507080074
:10004000B5070800B5070800F90A0800B507080059
:10005000B5070800B5070800B5070800B507080090
:10006000B5070800B507080000000000E505080016
:10007000F90508000D060800210608000000000030
:1000800000000000B5070800B5070800B507080024
:10009000B5070800B5070800B5070800B507080050
:1000A000B507080000000000B5070800B507080004
:1000B000B5070800B5070800B5070800B507080030
:1000C000B5070800B5070800B5070800B507080020
:1000D000B5070800B5070800B5070800B507080010
:1000E000B5070800B5070800B5070800B507080000
:1000F000B507080010B5054C237833B9044B13B18C
:100100000448AFF300800123237010BD6805072069
:1001100000000000A80F08000C4B43B10C4810B5BC
:100120000C49AFF300800C48036823B910BD0A489E
:10013000036833B97047094B002BF7D0BDE8104076
:100140001847064B002BF5D0184700BF00000000F1
:10015000A80F08006C050720A80F08000000000089
:1001600021B9436823F0010343607047436843F0BB
:10017000010343607047016270474162704730B4C9
:1001800085688468A54203D085688468AC42FBD149
:1001900061B1C4F3015000EB8005C4F3034000EBF0
:1001A000450014F4800F18BF0C30086042B1C4F34E
:1001B000023101EB8101C4F3032000EB4101116026
:1001C00043B1C4F3021202EB820204F00F0404EB09
:1001D00042041C6030BC7047F0B5059D069E079F29
:1001E0000C46B9B1416811F0010F05D00C2A3BD97A
:1001F0000C3A4FF4800100E000211C4CA4FB02E407
:10020000E40804EB840EA2EB4E02120442EA04520C
:1002100042EA01045BB1154BA3FB0523DB0803EBAA
:100220008302A5EB42052D0245EA03352C4356B166
:100230000E4BA3FB0723DB0803EB8302A7EB42076C
:1002400047EA03131C43036923F0801323F400439C
:1002500003610461036943F0801343F400430361C5
:10026000C06A00F00400F0BD0021C6E7CDCCCCCCC4
:1002700010B50E480E4B98473E2100200D4B984775
:100280000D4CA0470028FCD00C4B98470C4A0D4B56
:100290009A620D4CA0470028FCD010200B4B9847C9
:1002A0000B4B98470148024B984710BD00BD010514
:1002B000B1000720DD0608003107080041070800EB
:1002C000013F0D2000060E405107080035060800CA
:1002D0005108080010B54FF40042164B5A600B202D
:1002E000154CA0470C20A0470D20A0470E20A0478A
:1002F0004FF060513B20114CA0474FF0605155200A
:10030000A0474FF060515620A0470D496820A047F4
:100310000C495C20A0470C4A4FF440710B480C4B31
:1003200098474FF000612B20A0474FF000612A2032
:10033000A04710BD501A0E406107080029040800AC
:10034000790000280100002801000008000E0E407E
:10035000F90408004264B1F1805F16D00BD849B1AE
:10036000B1F1006F05D1036F016F0B4023EA020367
:10037000036742607047B1F1405FFBD0B1F1605F4D
:10038000F8D0B1F1205FF4D17047036F13430367D6
:10039000EFE7416412F0010F14BF4166016612F0ED
:1003A0000A0F14BF0162416212F0020F07D112F06E
:1003B000080F18BFC0F88410416101607047C0F891
:1003C0008010F9E710B4019C416444B9016643B15F
:1003D000016542B941630161016010BC704741662B
:1003E000F5E74165F5E70163F5E7C06C7047806CA0
:1003F0007047430903F5001303F207735B0200F033
:100400001F00012202FA00F018637047430903F548
:10041000001303F207735B0200F01F00012202FACF
:1004200000F058637047000070B582B00D46430974
:1004300003F5001303F207735C0201F0F043B3F11C
:10044000205F31D016D8B3F1006F1BD0B3F1805FBD
:1004500016D100F01F000126864032464FF0805131
:100460002046224B984715F0010F14BF666626669A
:10047000012017E0B3F1405F21D0B3F1605F1ED0DF
:1004800000200FE000F01F000126864032464FF0AA
:1004900000612046154B984715F0010F14BF6666A2
:1004A0002666012002B070BD00F01F0101262A4619
:1004B00006FA01F120460E4B98473046F2E705F068
:1004C000605200F01F01012605EA06030093C5F300
:1004D0008003B2F1605F14BF0022012206FA01F12D
:1004E0002046044CA0473046DCE700BF5503080017
:1004F00093030800C503080070B582B005460E4698
:10050000144602F0F043B3F1205F27D011D8B3F1C5
:10051000006F16D0B3F1805F11D10A464FF08051C1
:10052000194B984714F0010F14BF6E662E66012018
:1005300012E0B3F1405F15D0B3F1605F12D000203C
:100540000AE00A464FF000610F4B984714F0010F84
:1005500014BF6E662E66012002B070BD0B4B98472B
:100560000120F9E704F0605204F001030093C4F3A2
:100570008003B2F1605F14BF002201223146284699
:10058000034CA0470120E7E7550308009303080048
:10059000C50308002DE9F041044688460E4B9847F4
:1005A000054620460D4B9847054013D00C4C04F1EE
:1005B000600603E0B4420DD010345DB120684045C0
:1005C000F8D161682942F5D0E3689847636825EA65
:1005D0000305EFE7BDE8F081EB030800EF03080037
:1005E0008405072008B50B210148024B984708BD38
:1005F000000E0E409505080008B50C210148024B7D
:10060000984708BD00100E409505080008B50D215B
:100610000148024B984708BD00120E40950508009E
:1006200008B50E210148024B984708BD00140E4042
:1006300095050800174A136B23F0700318431063E5
:10064000936E13F0080F0AD14FF4006311498A6EBC
:1006500012F0080F03D1013BF9D1012070470D4A78
:10066000136B23F0030343F002031363936E13F041
:10067000080F0AD14FF4006306498A6E12F0080F82
:1006800005D1013BF9D101207047002070470020BF
:10069000704700BF00060E40012803D0054A064BF4
:1006A0001A607047044A936843F0254343F480136B
:1006B0009360F3E7080000A5101A0E40054B5B6934
:1006C00013F0800F1DBF044B986EC0F3C0100020C4
:1006D000704700BF101A0E4000060E40C8B9114AFC
:1006E000136A090289B223F45C1323F0030343F471
:1006F0005C1343F001030B431362936E13F0010F7D
:10070000FBD0084A136A43F09B7343F480331362AF
:10071000704704490B6A044A1A40044B13430B62A6
:10072000704700BF00060E40FCFFC8FE0200370104
:10073000024B986E00F48030704700BF00060E40F8
:100740004FF00052014B9A62704700BF00060E4006
:10075000024B986E00F00200704700BF00060E408A
:100760002C281ED81F280CD8114B9A6901238340CE
:10077000934318D0012303FA00F00D4B18610020B9
:10078000704720380A4BD3F8082101238340934354
:100790000BD0012303FA00F0054BC3F80001002041
:1007A000704701207047002070470020704700BF4D
:1007B00000060E40FEE7000008B51C4B1C4A9A429A
:1007C00010D01C4B194A9A420CD2013B9B1A23F0C1
:1007D000030304331344164951F8040B42F8040B85
:1007E0009A42F9D1144B154A9A420AD2013B9B1AFC
:1007F00023F0030304331344002142F8041B934203
:10080000FBD10F4B23F0604222F07F020D498A603A
:1008100003F16043B3F5801F03D28B6843F00053AC
:100820008B60094B9847094B9847FEE7000007206B
:10083000A80F080068050720F405072068050720B1
:100840000000080000ED00E0290E0800150A08006D
:100850003D4B1B6B03F00303032B0ED8DFE803F0C3
:10086000021C3838394B5B6913F0800F14BF4FF40A
:1008700000424FF4FA42364B1A60334B1B6B03F0C5
:100880007003702B57D0304B1A6B3149C2F30212F0
:100890000B68D3400B6070472B4B1B6A13F0807FB3
:1008A00003D02C4A2A4B1A60E7E72B4A284B1A60E0
:1008B000254B1B6A03F07003102B05D0202BDCD1D5
:1008C000244A234B1A60D8E7244A214B1A60D4E704
:1008D0001D4B1B6A13F0807F0CD01E4A1C4B1A6004
:1008E000194B1B6B03F00303022B16D01C4A184B49
:1008F0001A60C2E7184A164B1A60134B1B6A03F0C2
:100900007003102B05D0202BEAD1124A104B1A602D
:10091000E6E7124A0E4B1A60E2E70B4A916A926AC6
:100920000B48C1F30A41036801FB0333D2B2B3FBA6
:10093000F2F30360A1E7064A13680A49A1FB031317
:100940005B081360704700BF00060E40101A0E408F
:100950003C010720001BB70000093D0000127A008F
:10096000001C4E0EABAAAAAA10B50020054B984752
:10097000054CA0470028FCD000210448044B9847B0
:1009800010BD00BF99060800BD060800601A0E40A1
:1009900061010800002831D02DE9F04707460E46D6
:1009A000CD17174BA1FB030103FB051143F2B06206
:1009B000002343F2AF64002500196941114CA047A0
:1009C00082460024DFF844900F4DDFF8448008E0B1
:1009D0000620A8475620C0470620A8470134A74252
:1009E0000AD05620C847002EF2D05046A8475620BD
:1009F000C0475046A847F1E7BDE8F087704700BF01
:100A000000BD0105190B080001000720F3030800D1
:100A10000D04080070B588B02C4B98472C4B9847B4
:100A20002C4B984701222C4B1A70BFF35F8F62B694
:100A30003B202A4B984705AB06AA07A92848294C12
:100A4000A047059B362B0CD8DC1CA34209D2244EB0
:100A5000244D05AB06AA07A93046A847059B9C4232
:100A6000F7D8FA210420204B98471D4C05AB06AA65
:100A700007A920461B4DA847022120461B4B98473B
:100A80001B4B0422C3F88021102183F802131A6043
:100A9000059B312B0CD80733029301230193069B4E
:100AA00000930023079A19462046124CA047FEE700
:100AB0000523029301230193069B01330093002336
:100AC000079A194606480B4CA047F0E77102080048
:100AD000D502080069090800380107200D04080044
:100AE000601A0E407F010800950908007701080090
:100AF00000E100E0D901080008B5FA210620034B07
:100B0000984702210248034B984708BD9509080001
:100B1000601A0E407B01080053B94AB9002908BF8A
:100B200000281CBF4FF0FF314FF0FF3000F07AB9C2
:100B3000ADF1080C6DE904CE00F006F8DDF804E034
:100B4000DDE9022304B070472DE9F0478C460E46DC
:100B50000446089D002B50D18A4217466CD9B2FA40
:100B600082FEBEF1000F0BD0CEF1200C01FA0EF682
:100B700020FA0CFC02FA0EF74CEA060C00FA0EF40E
:100B80003A0CBCFBF2F9BBB202FB19CC09FB03FA2D
:100B90004FEA144848EA0C46B2450AD9F61909F159
:100BA000FF3180F02581B24540F22281A9F102098E
:100BB0003E44A6EB0A06B6FBF2F002FB106600FB11
:100BC00003F3A4B244EA0644A34209D9E41900F1AC
:100BD000FF3280F00B81A34240F2088102383C448E
:100BE0000021E41A40EA0940002D62D0002324FAD3
:100BF0000EF42C606B60BDE8F0878B4207D9002DA6
:100C000055D0002185E841000846BDE8F087B3FAD9
:100C100083F1002940F08F80B34202D3824200F278
:100C2000FC80841A66EB03060120B446002D40D0F8
:100C300085E81010BDE8F08712B90127B7FBF2F77D
:100C4000B7FA87FEBEF1000F35D10121F61B4FEA3E
:100C5000174C1FFA87F8B6FBFCF20CFB126608FB78
:100C600002F0230C43EA0646B04207D9F61902F116
:100C7000FF3302D2B04200F2D2801A46361AB6FBD7
:100C8000FCF00CFB106608FB00F8A3B243EA064434
:100C9000A04507D9E41900F1FF3302D2A04500F2C4
:100CA000B9801846A4EB080440EA02409CE72946B4
:100CB0002846BDE8F08707FA0EF7CEF1200326FAA2
:100CC00003F24FEA174CB2FBFCF11FFA87F80CFB5A
:100CD000112206FA0EF620FA03F301FB08F933435A
:100CE0001E0C46EA0246B14500FA0EF409D9F6197F
:100CF00001F1FF3280F08C80B14540F289800239E9
:100D00003E44A6EB0906B6FBFCF00CFB106200FBB0
:100D100008F99EB246EA0246B14507D9F61900F134
:100D2000FF3371D2B1456FD902383E44A6EB0906B4
:100D300040EA01418FE7C1F1200722FA07F88B4012
:100D400048EA030326FA07F44FEA134EB4FBFEF910
:100D50001FFA83FC0EFB19448E4020FA07F809FBAA
:100D60000CFA48EA06084FEA184646EA0444A24547
:100D700002FA01F200FA01F608D9E41809F1FF308D
:100D800044D2A24542D9A9F102091C44A4EB0A04A9
:100D9000B4FBFEF00EFB104400FB0CFC1FFA88F8BD
:100DA00048EA0444A44507D9E41800F1FF3E29D2DB
:100DB000A44527D902381C4440EA0940A0FB028917
:100DC000A4EB0C0CCC45C246CE4615D312D055B17F
:100DD000B6EB0A036CEB0E0606FA07F7CB401F438F
:100DE000CE402F606E600021BDE8F0871046F7E628
:100DF0008946DEE64645EAD2B8EB020A69EB030E05
:100E00000138E4E77046D7E718468FE78146BDE72B
:100E1000114676E702383C4444E7084606E7023AC2
:100E20003E442BE7704700BF70B50F4E0F4D761B49
:100E3000B61018BF002405D0013455F8043B98477C
:100E4000A642F9D10A4E0B4D00F098F8761BB61069
:100E500018BF002406D0013455F8043B9847A64239
:100E6000F9D170BD70BD00BF880F0800880F080061
:100E7000900F0800880F0800024B13B1024800F0E1
:100E800005B8704700000000990E080000230146D5
:100E90001A46184600F01AB838B50A4C0A4D641BB9
:100EA000A4100AD004F18043013B05EB8305013C0B
:100EB00055F804399847002CF9D1BDE8384000F0C6
:100EC00067B800BFA00F08009C0F08002DE9F0478D
:100ED000274C074626688846D6F8484192469946E8
:100EE000002C3CD065681F2D1ADC05F1010E7FB186
:100EF000012004EB8503C3F888A0D4F8881100FA18
:100F000005F21143022FC4F88811C3F8089120D0CC
:100F10000235C4F804E0002044F82580BDE8F087DD
:100F2000144B0BB34FF4C870AFF300800446D8B134
:100F30000020D6F848314FF0010E6060236005466E
:100F4000C6F84841C4F88801C4F88C01002FDFD0EE
:100F5000CEE7D4F88C311A43C4F88C21D8E706F5D3
:100F6000A674C6F84841BDE74FF0FF30BDE8F087F2
:100F7000780F08000000000040010720F8B500BF0E
:100F8000F8BC08BC9E467047790E0800190108009D
:100F9000F8B500BFF8BC08BC9E467047F5000800D5
:080FA000A8FBFF7F0100000027
:100FA800BFF35F8F0138FBD1704700004FF48063B7
:100FB800204A136002F5007213601F4B1B6A13F07E
:100FC800807F07D11D4A1C4B1A621A46936E13F094
:100FD800010FFBD01A4A184B1A621A46936E13F483
:100FE800803FFBD0144A136B23F0030343F0010343
:100FF8001363936E13F0080FFBD0124A0E4B9A62DC
:101008001A46936E13F0020FFBD011220A4B1A6393
:101018001A46936E13F0080FFBD01222064B1A6380
:101028001A46936E13F0080FFBD0074A074B1A6055
:10103800704700BF000A0E4000060E40090837003E
:1010480009083701013F0D2000BD01053C010720BB
:101058001B4B984215D91B4B984219D91A4B9842E9
:101068001ED91A4B984223D9194B984294BF4FF472
:1010780080634FF4A063174A136002F5007213608F
:1010880070470023134A136002F50072136070471B
:101098004FF480730F4A136002F5007213607047B3
:1010A8004FF400730B4A136002F500721360704727
:1010B8004FF44073074A136002F5007213607047DB
:1010C800BFEA21017FF0FA02FF8FD003FFB3C40407
:1010D8007F4A5D05000A0E400100000000093D003E
:1010E800000000002C04072094040720FC040720BB
:1010F80000000000000000000000000000000000E8
:1011080000000000000000000000000000000000D7
:1011180000000000000000000000000000000000C7
:1011280000000000000000000000000000000000B7
:1011380000000000000000000000000000000000A7
:101148000000000000000000000000000000000097
:101158000000000000000000000000000000000087
:101168000000000000000000000000000000000077
:101178000000000000000000000000000000000067
:101188000000000000000000010000000000000056
:101198000E33CDAB34126DE6ECDE05000B0000001B
:1011A8000000000000000000000000000000000037
:1011B8000000000000000000000000000000000027
:1011C8000000000000000000000000000000000017
:1011D8000000000000000000000000000000000007
:04000003800007B9B9
:00000001FF
